{
  "contractName": "InJikToken",
  "abi": [
    {
      "inputs": [],
      "stateMutability": "nonpayable",
      "type": "constructor"
    },
    {
      "anonymous": false,
      "inputs": [
        {
          "indexed": true,
          "internalType": "address",
          "name": "owner",
          "type": "address"
        },
        {
          "indexed": true,
          "internalType": "address",
          "name": "approved",
          "type": "address"
        },
        {
          "indexed": true,
          "internalType": "uint256",
          "name": "tokenId",
          "type": "uint256"
        }
      ],
      "name": "Approval",
      "type": "event"
    },
    {
      "anonymous": false,
      "inputs": [
        {
          "indexed": true,
          "internalType": "address",
          "name": "owner",
          "type": "address"
        },
        {
          "indexed": true,
          "internalType": "address",
          "name": "operator",
          "type": "address"
        },
        {
          "indexed": false,
          "internalType": "bool",
          "name": "approved",
          "type": "bool"
        }
      ],
      "name": "ApprovalForAll",
      "type": "event"
    },
    {
      "anonymous": false,
      "inputs": [
        {
          "indexed": true,
          "internalType": "address",
          "name": "previousOwner",
          "type": "address"
        },
        {
          "indexed": true,
          "internalType": "address",
          "name": "newOwner",
          "type": "address"
        }
      ],
      "name": "OwnershipTransferred",
      "type": "event"
    },
    {
      "anonymous": false,
      "inputs": [
        {
          "indexed": true,
          "internalType": "address",
          "name": "from",
          "type": "address"
        },
        {
          "indexed": true,
          "internalType": "address",
          "name": "to",
          "type": "address"
        },
        {
          "indexed": true,
          "internalType": "uint256",
          "name": "tokenId",
          "type": "uint256"
        }
      ],
      "name": "Transfer",
      "type": "event"
    },
    {
      "inputs": [
        {
          "internalType": "address",
          "name": "to",
          "type": "address"
        },
        {
          "internalType": "uint256",
          "name": "tokenId",
          "type": "uint256"
        }
      ],
      "name": "approve",
      "outputs": [],
      "stateMutability": "nonpayable",
      "type": "function"
    },
    {
      "inputs": [
        {
          "internalType": "address",
          "name": "owner",
          "type": "address"
        }
      ],
      "name": "balanceOf",
      "outputs": [
        {
          "internalType": "uint256",
          "name": "",
          "type": "uint256"
        }
      ],
      "stateMutability": "view",
      "type": "function",
      "constant": true
    },
    {
      "inputs": [
        {
          "internalType": "uint256",
          "name": "tokenId",
          "type": "uint256"
        }
      ],
      "name": "getApproved",
      "outputs": [
        {
          "internalType": "address",
          "name": "",
          "type": "address"
        }
      ],
      "stateMutability": "view",
      "type": "function",
      "constant": true
    },
    {
      "inputs": [
        {
          "internalType": "address",
          "name": "owner",
          "type": "address"
        },
        {
          "internalType": "address",
          "name": "operator",
          "type": "address"
        }
      ],
      "name": "isApprovedForAll",
      "outputs": [
        {
          "internalType": "bool",
          "name": "",
          "type": "bool"
        }
      ],
      "stateMutability": "view",
      "type": "function",
      "constant": true
    },
    {
      "inputs": [],
      "name": "name",
      "outputs": [
        {
          "internalType": "string",
          "name": "",
          "type": "string"
        }
      ],
      "stateMutability": "view",
      "type": "function",
      "constant": true
    },
    {
      "inputs": [],
      "name": "owner",
      "outputs": [
        {
          "internalType": "address",
          "name": "",
          "type": "address"
        }
      ],
      "stateMutability": "view",
      "type": "function",
      "constant": true
    },
    {
      "inputs": [
        {
          "internalType": "uint256",
          "name": "tokenId",
          "type": "uint256"
        }
      ],
      "name": "ownerOf",
      "outputs": [
        {
          "internalType": "address",
          "name": "",
          "type": "address"
        }
      ],
      "stateMutability": "view",
      "type": "function",
      "constant": true
    },
    {
      "inputs": [],
      "name": "renounceOwnership",
      "outputs": [],
      "stateMutability": "nonpayable",
      "type": "function"
    },
    {
      "inputs": [
        {
          "internalType": "address",
          "name": "from",
          "type": "address"
        },
        {
          "internalType": "address",
          "name": "to",
          "type": "address"
        },
        {
          "internalType": "uint256",
          "name": "tokenId",
          "type": "uint256"
        }
      ],
      "name": "safeTransferFrom",
      "outputs": [],
      "stateMutability": "nonpayable",
      "type": "function"
    },
    {
      "inputs": [
        {
          "internalType": "address",
          "name": "from",
          "type": "address"
        },
        {
          "internalType": "address",
          "name": "to",
          "type": "address"
        },
        {
          "internalType": "uint256",
          "name": "tokenId",
          "type": "uint256"
        },
        {
          "internalType": "bytes",
          "name": "_data",
          "type": "bytes"
        }
      ],
      "name": "safeTransferFrom",
      "outputs": [],
      "stateMutability": "nonpayable",
      "type": "function"
    },
    {
      "inputs": [
        {
          "internalType": "address",
          "name": "operator",
          "type": "address"
        },
        {
          "internalType": "bool",
          "name": "approved",
          "type": "bool"
        }
      ],
      "name": "setApprovalForAll",
      "outputs": [],
      "stateMutability": "nonpayable",
      "type": "function"
    },
    {
      "inputs": [
        {
          "internalType": "bytes4",
          "name": "interfaceId",
          "type": "bytes4"
        }
      ],
      "name": "supportsInterface",
      "outputs": [
        {
          "internalType": "bool",
          "name": "",
          "type": "bool"
        }
      ],
      "stateMutability": "view",
      "type": "function",
      "constant": true
    },
    {
      "inputs": [],
      "name": "symbol",
      "outputs": [
        {
          "internalType": "string",
          "name": "",
          "type": "string"
        }
      ],
      "stateMutability": "view",
      "type": "function",
      "constant": true
    },
    {
      "inputs": [
        {
          "internalType": "uint256",
          "name": "tokenId",
          "type": "uint256"
        }
      ],
      "name": "tokenURI",
      "outputs": [
        {
          "internalType": "string",
          "name": "",
          "type": "string"
        }
      ],
      "stateMutability": "view",
      "type": "function",
      "constant": true
    },
    {
      "inputs": [
        {
          "internalType": "address",
          "name": "from",
          "type": "address"
        },
        {
          "internalType": "address",
          "name": "to",
          "type": "address"
        },
        {
          "internalType": "uint256",
          "name": "tokenId",
          "type": "uint256"
        }
      ],
      "name": "transferFrom",
      "outputs": [],
      "stateMutability": "nonpayable",
      "type": "function"
    },
    {
      "inputs": [
        {
          "internalType": "address",
          "name": "newOwner",
          "type": "address"
        }
      ],
      "name": "transferOwnership",
      "outputs": [],
      "stateMutability": "nonpayable",
      "type": "function"
    },
    {
      "inputs": [
        {
          "internalType": "address",
          "name": "to",
          "type": "address"
        },
        {
          "internalType": "uint256",
          "name": "amount",
          "type": "uint256"
        }
      ],
      "name": "mint",
      "outputs": [],
      "stateMutability": "nonpayable",
      "type": "function"
    },
    {
      "inputs": [
        {
          "internalType": "string",
          "name": "tokenURI",
          "type": "string"
        }
      ],
      "name": "mintNFT",
      "outputs": [
        {
          "internalType": "uint256",
          "name": "",
          "type": "uint256"
        }
      ],
      "stateMutability": "nonpayable",
      "type": "function"
    }
  ],
  "bytecode": "0x6080604052621e84806008553480156200001857600080fd5b506040518060400160405280600581526020017f496e4a696b0000000000000000000000000000000000000000000000000000008152506040518060400160405280600381526020017f494e4a000000000000000000000000000000000000000000000000000000000081525081600090805190602001906200009d9291906200044d565b508060019080519060200190620000b69291906200044d565b505050620000d9620000cd6200010f60201b60201c565b6200011760201b60201c565b62000109336012600a620000ee919062000658565b600854620000fd919062000795565b620001dd60201b60201c565b620008f3565b600033905090565b6000600760009054906101000a900473ffffffffffffffffffffffffffffffffffffffff16905081600760006101000a81548173ffffffffffffffffffffffffffffffffffffffff021916908373ffffffffffffffffffffffffffffffffffffffff1602179055508173ffffffffffffffffffffffffffffffffffffffff168173ffffffffffffffffffffffffffffffffffffffff167f8be0079c531659141344cd1fd0a4f28419497f9722a3daafe3b4186f6b6457e060405160405180910390a35050565b600073ffffffffffffffffffffffffffffffffffffffff168273ffffffffffffffffffffffffffffffffffffffff16141562000250576040517f08c379a000000000000000000000000000000000000000000000000000000000815260040162000247906200056d565b60405180910390fd5b6200026181620003d760201b60201c565b15620002a4576040517f08c379a00000000000000000000000000000000000000000000000000000000081526004016200029b906200054b565b60405180910390fd5b620002b8600083836200044360201b60201c565b6001600360008473ffffffffffffffffffffffffffffffffffffffff1673ffffffffffffffffffffffffffffffffffffffff16815260200190815260200160002060008282546200030a9190620005a0565b92505081905550816002600083815260200190815260200160002060006101000a81548173ffffffffffffffffffffffffffffffffffffffff021916908373ffffffffffffffffffffffffffffffffffffffff160217905550808273ffffffffffffffffffffffffffffffffffffffff16600073ffffffffffffffffffffffffffffffffffffffff167fddf252ad1be2c89b69c2b068fc378daa952ba7f163c4a11628f55a4df523b3ef60405160405180910390a4620003d3600083836200044860201b60201c565b5050565b60008073ffffffffffffffffffffffffffffffffffffffff166002600084815260200190815260200160002060009054906101000a900473ffffffffffffffffffffffffffffffffffffffff1673ffffffffffffffffffffffffffffffffffffffff1614159050919050565b505050565b505050565b8280546200045b9062000800565b90600052602060002090601f0160209004810192826200047f5760008555620004cb565b82601f106200049a57805160ff1916838001178555620004cb565b82800160010185558215620004cb579182015b82811115620004ca578251825591602001919060010190620004ad565b5b509050620004da9190620004de565b5090565b5b80821115620004f9576000816000905550600101620004df565b5090565b60006200050c601c836200058f565b91506200051982620008a1565b602082019050919050565b6000620005336020836200058f565b91506200054082620008ca565b602082019050919050565b600060208201905081810360008301526200056681620004fd565b9050919050565b60006020820190508181036000830152620005888162000524565b9050919050565b600082825260208201905092915050565b6000620005ad82620007f6565b9150620005ba83620007f6565b9250827fffffffffffffffffffffffffffffffffffffffffffffffffffffffffffffffff03821115620005f257620005f162000836565b5b828201905092915050565b6000808291508390505b60018511156200064f5780860481111562000627576200062662000836565b5b6001851615620006375780820291505b8081029050620006478562000894565b945062000607565b94509492505050565b60006200066582620007f6565b91506200067283620007f6565b9250620006a17fffffffffffffffffffffffffffffffffffffffffffffffffffffffffffffffff8484620006a9565b905092915050565b600082620006bb57600190506200078e565b81620006cb57600090506200078e565b8160018114620006e45760028114620006ef5762000725565b60019150506200078e565b60ff84111562000704576200070362000836565b5b8360020a9150848211156200071e576200071d62000836565b5b506200078e565b5060208310610133831016604e8410600b84101617156200075f5782820a90508381111562000759576200075862000836565b5b6200078e565b6200076e8484846001620005fd565b9250905081840481111562000788576200078762000836565b5b81810290505b9392505050565b6000620007a282620007f6565b9150620007af83620007f6565b9250817fffffffffffffffffffffffffffffffffffffffffffffffffffffffffffffffff0483118215151615620007eb57620007ea62000836565b5b828202905092915050565b6000819050919050565b600060028204905060018216806200081957607f821691505b6020821081141562000830576200082f62000865565b5b50919050565b7f4e487b7100000000000000000000000000000000000000000000000000000000600052601160045260246000fd5b7f4e487b7100000000000000000000000000000000000000000000000000000000600052602260045260246000fd5b60008160011c9050919050565b7f4552433732313a20746f6b656e20616c7265616479206d696e74656400000000600082015250565b7f4552433732313a206d696e7420746f20746865207a65726f2061646472657373600082015250565b6130bd80620009036000396000f3fe608060405234801561001057600080fd5b50600436106101165760003560e01c8063715018a6116100a2578063b88d4fde11610071578063b88d4fde146102cb578063c87b56dd146102e7578063e985e9c514610317578063f2fde38b14610347578063fb37e8831461036357610116565b8063715018a6146102695780638da5cb5b1461027357806395d89b4114610291578063a22cb465146102af57610116565b806323b872dd116100e957806323b872dd146101b557806340c10f19146101d157806342842e0e146101ed5780636352211e1461020957806370a082311461023957610116565b806301ffc9a71461011b57806306fdde031461014b578063081812fc14610169578063095ea7b314610199575b600080fd5b61013560048036038101906101309190611fd4565b610393565b6040516101429190612475565b60405180910390f35b610153610475565b6040516101609190612490565b60405180910390f35b610183600480360381019061017e9190612077565b610507565b604051610190919061240e565b60405180910390f35b6101b360048036038101906101ae9190611f94565b61058c565b005b6101cf60048036038101906101ca9190611e7e565b6106a4565b005b6101eb60048036038101906101e69190611f94565b610704565b005b61020760048036038101906102029190611e7e565b61078e565b005b610223600480360381019061021e9190612077565b6107ae565b604051610230919061240e565b60405180910390f35b610253600480360381019061024e9190611e11565b610860565b60405161026091906126f2565b60405180910390f35b610271610918565b005b61027b6109a0565b604051610288919061240e565b60405180910390f35b6102996109ca565b6040516102a69190612490565b60405180910390f35b6102c960048036038101906102c49190611f54565b610a5c565b005b6102e560048036038101906102e09190611ed1565b610a72565b005b61030160048036038101906102fc9190612077565b610ad4565b60405161030e9190612490565b60405180910390f35b610331600480360381019061032c9190611e3e565b610c26565b60405161033e9190612475565b60405180910390f35b610361600480360381019061035c9190611e11565b610cba565b005b61037d6004803603810190610378919061202e565b610db2565b60405161038a91906126f2565b60405180910390f35b60007f80ac58cd000000000000000000000000000000000000000000000000000000007bffffffffffffffffffffffffffffffffffffffffffffffffffffffff1916827bffffffffffffffffffffffffffffffffffffffffffffffffffffffff1916148061045e57507f5b5e139f000000000000000000000000000000000000000000000000000000007bffffffffffffffffffffffffffffffffffffffffffffffffffffffff1916827bffffffffffffffffffffffffffffffffffffffffffffffffffffffff1916145b8061046e575061046d82610e65565b5b9050919050565b60606000805461048490612948565b80601f01602080910402602001604051908101604052809291908181526020018280546104b090612948565b80156104fd5780601f106104d2576101008083540402835291602001916104fd565b820191906000526020600020905b8154815290600101906020018083116104e057829003601f168201915b5050505050905090565b600061051282610ecf565b610551576040517f08c379a000000000000000000000000000000000000000000000000000000000815260040161054890612652565b60405180910390fd5b6004600083815260200190815260200160002060009054906101000a900473ffffffffffffffffffffffffffffffffffffffff169050919050565b6000610597826107ae565b90508073ffffffffffffffffffffffffffffffffffffffff168373ffffffffffffffffffffffffffffffffffffffff161415610608576040517f08c379a00000000000000000000000000000000000000000000000000000000081526004016105ff906126b2565b60405180910390fd5b8073ffffffffffffffffffffffffffffffffffffffff16610627610f3b565b73ffffffffffffffffffffffffffffffffffffffff161480610656575061065581610650610f3b565b610c26565b5b610695576040517f08c379a000000000000000000000000000000000000000000000000000000000815260040161068c90612592565b60405180910390fd5b61069f8383610f43565b505050565b6106b56106af610f3b565b82610ffc565b6106f4576040517f08c379a00000000000000000000000000000000000000000000000000000000081526004016106eb906126d2565b60405180910390fd5b6106ff8383836110da565b505050565b61070c610f3b565b73ffffffffffffffffffffffffffffffffffffffff1661072a6109a0565b73ffffffffffffffffffffffffffffffffffffffff1614610780576040517f08c379a000000000000000000000000000000000000000000000000000000000815260040161077790612672565b60405180910390fd5b61078a8282611341565b5050565b6107a983838360405180602001604052806000815250610a72565b505050565b6000806002600084815260200190815260200160002060009054906101000a900473ffffffffffffffffffffffffffffffffffffffff169050600073ffffffffffffffffffffffffffffffffffffffff168173ffffffffffffffffffffffffffffffffffffffff161415610857576040517f08c379a000000000000000000000000000000000000000000000000000000000815260040161084e906125d2565b60405180910390fd5b80915050919050565b60008073ffffffffffffffffffffffffffffffffffffffff168273ffffffffffffffffffffffffffffffffffffffff1614156108d1576040517f08c379a00000000000000000000000000000000000000000000000000000000081526004016108c8906125b2565b60405180910390fd5b600360008373ffffffffffffffffffffffffffffffffffffffff1673ffffffffffffffffffffffffffffffffffffffff168152602001908152602001600020549050919050565b610920610f3b565b73ffffffffffffffffffffffffffffffffffffffff1661093e6109a0565b73ffffffffffffffffffffffffffffffffffffffff1614610994576040517f08c379a000000000000000000000000000000000000000000000000000000000815260040161098b90612672565b60405180910390fd5b61099e600061151b565b565b6000600760009054906101000a900473ffffffffffffffffffffffffffffffffffffffff16905090565b6060600180546109d990612948565b80601f0160208091040260200160405190810160405280929190818152602001828054610a0590612948565b8015610a525780601f10610a2757610100808354040283529160200191610a52565b820191906000526020600020905b815481529060010190602001808311610a3557829003601f168201915b5050505050905090565b610a6e610a67610f3b565b83836115e1565b5050565b610a83610a7d610f3b565b83610ffc565b610ac2576040517f08c379a0000000000000000000000000000000000000000000000000000000008152600401610ab9906126d2565b60405180910390fd5b610ace8484848461174e565b50505050565b6060610adf82610ecf565b610b1e576040517f08c379a0000000000000000000000000000000000000000000000000000000008152600401610b1590612632565b60405180910390fd5b6000600660008481526020019081526020016000208054610b3e90612948565b80601f0160208091040260200160405190810160405280929190818152602001828054610b6a90612948565b8015610bb75780601f10610b8c57610100808354040283529160200191610bb7565b820191906000526020600020905b815481529060010190602001808311610b9a57829003601f168201915b505050505090506000610bc86117aa565b9050600081511415610bde578192505050610c21565b600082511115610c13578082604051602001610bfb9291906123ea565b60405160208183030381529060405292505050610c21565b610c1c846117c1565b925050505b919050565b6000600560008473ffffffffffffffffffffffffffffffffffffffff1673ffffffffffffffffffffffffffffffffffffffff16815260200190815260200160002060008373ffffffffffffffffffffffffffffffffffffffff1673ffffffffffffffffffffffffffffffffffffffff16815260200190815260200160002060009054906101000a900460ff16905092915050565b610cc2610f3b565b73ffffffffffffffffffffffffffffffffffffffff16610ce06109a0565b73ffffffffffffffffffffffffffffffffffffffff1614610d36576040517f08c379a0000000000000000000000000000000000000000000000000000000008152600401610d2d90612672565b60405180910390fd5b600073ffffffffffffffffffffffffffffffffffffffff168173ffffffffffffffffffffffffffffffffffffffff161415610da6576040517f08c379a0000000000000000000000000000000000000000000000000000000008152600401610d9d906124d2565b60405180910390fd5b610daf8161151b565b50565b6000610dbc610f3b565b73ffffffffffffffffffffffffffffffffffffffff16610dda6109a0565b73ffffffffffffffffffffffffffffffffffffffff1614610e30576040517f08c379a0000000000000000000000000000000000000000000000000000000008152600401610e2790612672565b60405180910390fd5b610e3a6009611868565b6000610e46600961187e565b9050610e523382611341565b610e5c818461188c565b80915050919050565b60007f01ffc9a7000000000000000000000000000000000000000000000000000000007bffffffffffffffffffffffffffffffffffffffffffffffffffffffff1916827bffffffffffffffffffffffffffffffffffffffffffffffffffffffff1916149050919050565b60008073ffffffffffffffffffffffffffffffffffffffff166002600084815260200190815260200160002060009054906101000a900473ffffffffffffffffffffffffffffffffffffffff1673ffffffffffffffffffffffffffffffffffffffff1614159050919050565b600033905090565b816004600083815260200190815260200160002060006101000a81548173ffffffffffffffffffffffffffffffffffffffff021916908373ffffffffffffffffffffffffffffffffffffffff160217905550808273ffffffffffffffffffffffffffffffffffffffff16610fb6836107ae565b73ffffffffffffffffffffffffffffffffffffffff167f8c5be1e5ebec7d5bd14f71427d1e84f3dd0314c0f7b2291e5b200ac8c7c3b92560405160405180910390a45050565b600061100782610ecf565b611046576040517f08c379a000000000000000000000000000000000000000000000000000000000815260040161103d90612572565b60405180910390fd5b6000611051836107ae565b90508073ffffffffffffffffffffffffffffffffffffffff168473ffffffffffffffffffffffffffffffffffffffff16148061109357506110928185610c26565b5b806110d157508373ffffffffffffffffffffffffffffffffffffffff166110b984610507565b73ffffffffffffffffffffffffffffffffffffffff16145b91505092915050565b8273ffffffffffffffffffffffffffffffffffffffff166110fa826107ae565b73ffffffffffffffffffffffffffffffffffffffff1614611150576040517f08c379a0000000000000000000000000000000000000000000000000000000008152600401611147906124f2565b60405180910390fd5b600073ffffffffffffffffffffffffffffffffffffffff168273ffffffffffffffffffffffffffffffffffffffff1614156111c0576040517f08c379a00000000000000000000000000000000000000000000000000000000081526004016111b790612532565b60405180910390fd5b6111cb838383611900565b6111d6600082610f43565b6001600360008573ffffffffffffffffffffffffffffffffffffffff1673ffffffffffffffffffffffffffffffffffffffff1681526020019081526020016000206000828254611226919061285e565b925050819055506001600360008473ffffffffffffffffffffffffffffffffffffffff1673ffffffffffffffffffffffffffffffffffffffff168152602001908152602001600020600082825461127d91906127d7565b92505081905550816002600083815260200190815260200160002060006101000a81548173ffffffffffffffffffffffffffffffffffffffff021916908373ffffffffffffffffffffffffffffffffffffffff160217905550808273ffffffffffffffffffffffffffffffffffffffff168473ffffffffffffffffffffffffffffffffffffffff167fddf252ad1be2c89b69c2b068fc378daa952ba7f163c4a11628f55a4df523b3ef60405160405180910390a461133c838383611905565b505050565b600073ffffffffffffffffffffffffffffffffffffffff168273ffffffffffffffffffffffffffffffffffffffff1614156113b1576040517f08c379a00000000000000000000000000000000000000000000000000000000081526004016113a890612612565b60405180910390fd5b6113ba81610ecf565b156113fa576040517f08c379a00000000000000000000000000000000000000000000000000000000081526004016113f190612512565b60405180910390fd5b61140660008383611900565b6001600360008473ffffffffffffffffffffffffffffffffffffffff1673ffffffffffffffffffffffffffffffffffffffff168152602001908152602001600020600082825461145691906127d7565b92505081905550816002600083815260200190815260200160002060006101000a81548173ffffffffffffffffffffffffffffffffffffffff021916908373ffffffffffffffffffffffffffffffffffffffff160217905550808273ffffffffffffffffffffffffffffffffffffffff16600073ffffffffffffffffffffffffffffffffffffffff167fddf252ad1be2c89b69c2b068fc378daa952ba7f163c4a11628f55a4df523b3ef60405160405180910390a461151760008383611905565b5050565b6000600760009054906101000a900473ffffffffffffffffffffffffffffffffffffffff16905081600760006101000a81548173ffffffffffffffffffffffffffffffffffffffff021916908373ffffffffffffffffffffffffffffffffffffffff1602179055508173ffffffffffffffffffffffffffffffffffffffff168173ffffffffffffffffffffffffffffffffffffffff167f8be0079c531659141344cd1fd0a4f28419497f9722a3daafe3b4186f6b6457e060405160405180910390a35050565b8173ffffffffffffffffffffffffffffffffffffffff168373ffffffffffffffffffffffffffffffffffffffff161415611650576040517f08c379a000000000000000000000000000000000000000000000000000000000815260040161164790612552565b60405180910390fd5b80600560008573ffffffffffffffffffffffffffffffffffffffff1673ffffffffffffffffffffffffffffffffffffffff16815260200190815260200160002060008473ffffffffffffffffffffffffffffffffffffffff1673ffffffffffffffffffffffffffffffffffffffff16815260200190815260200160002060006101000a81548160ff0219169083151502179055508173ffffffffffffffffffffffffffffffffffffffff168373ffffffffffffffffffffffffffffffffffffffff167f17307eab39ab6107e8899845ad3d59bd9653f200f220920489ca2b5937696c31836040516117419190612475565b60405180910390a3505050565b6117598484846110da565b6117658484848461190a565b6117a4576040517f08c379a000000000000000000000000000000000000000000000000000000000815260040161179b906124b2565b60405180910390fd5b50505050565b606060405180602001604052806000815250905090565b60606117cc82610ecf565b61180b576040517f08c379a000000000000000000000000000000000000000000000000000000000815260040161180290612692565b60405180910390fd5b60006118156117aa565b905060008151116118355760405180602001604052806000815250611860565b8061183f84611aa1565b6040516020016118509291906123ea565b6040516020818303038152906040525b915050919050565b6001816000016000828254019250508190555050565b600081600001549050919050565b61189582610ecf565b6118d4576040517f08c379a00000000000000000000000000000000000000000000000000000000081526004016118cb906125f2565b60405180910390fd5b806006600084815260200190815260200160002090805190602001906118fb929190611c25565b505050565b505050565b505050565b600061192b8473ffffffffffffffffffffffffffffffffffffffff16611c02565b15611a94578373ffffffffffffffffffffffffffffffffffffffff1663150b7a02611954610f3b565b8786866040518563ffffffff1660e01b81526004016119769493929190612429565b602060405180830381600087803b15801561199057600080fd5b505af19250505080156119c157506040513d601f19601f820116820180604052508101906119be9190612001565b60015b611a44573d80600081146119f1576040519150601f19603f3d011682016040523d82523d6000602084013e6119f6565b606091505b50600081511415611a3c576040517f08c379a0000000000000000000000000000000000000000000000000000000008152600401611a33906124b2565b60405180910390fd5b805181602001fd5b63150b7a0260e01b7bffffffffffffffffffffffffffffffffffffffffffffffffffffffff1916817bffffffffffffffffffffffffffffffffffffffffffffffffffffffff191614915050611a99565b600190505b949350505050565b60606000821415611ae9576040518060400160405280600181526020017f30000000000000000000000000000000000000000000000000000000000000008152509050611bfd565b600082905060005b60008214611b1b578080611b04906129ab565b915050600a82611b14919061282d565b9150611af1565b60008167ffffffffffffffff811115611b3757611b36612ae1565b5b6040519080825280601f01601f191660200182016040528015611b695781602001600182028036833780820191505090505b5090505b60008514611bf657600182611b82919061285e565b9150600a85611b9191906129f4565b6030611b9d91906127d7565b60f81b818381518110611bb357611bb2612ab2565b5b60200101907effffffffffffffffffffffffffffffffffffffffffffffffffffffffffffff1916908160001a905350600a85611bef919061282d565b9450611b6d565b8093505050505b919050565b6000808273ffffffffffffffffffffffffffffffffffffffff163b119050919050565b828054611c3190612948565b90600052602060002090601f016020900481019282611c535760008555611c9a565b82601f10611c6c57805160ff1916838001178555611c9a565b82800160010185558215611c9a579182015b82811115611c99578251825591602001919060010190611c7e565b5b509050611ca79190611cab565b5090565b5b80821115611cc4576000816000905550600101611cac565b5090565b6000611cdb611cd684612732565b61270d565b905082815260208101848484011115611cf757611cf6612b15565b5b611d02848285612906565b509392505050565b6000611d1d611d1884612763565b61270d565b905082815260208101848484011115611d3957611d38612b15565b5b611d44848285612906565b509392505050565b600081359050611d5b8161302b565b92915050565b600081359050611d7081613042565b92915050565b600081359050611d8581613059565b92915050565b600081519050611d9a81613059565b92915050565b600082601f830112611db557611db4612b10565b5b8135611dc5848260208601611cc8565b91505092915050565b600082601f830112611de357611de2612b10565b5b8135611df3848260208601611d0a565b91505092915050565b600081359050611e0b81613070565b92915050565b600060208284031215611e2757611e26612b1f565b5b6000611e3584828501611d4c565b91505092915050565b60008060408385031215611e5557611e54612b1f565b5b6000611e6385828601611d4c565b9250506020611e7485828601611d4c565b9150509250929050565b600080600060608486031215611e9757611e96612b1f565b5b6000611ea586828701611d4c565b9350506020611eb686828701611d4c565b9250506040611ec786828701611dfc565b9150509250925092565b60008060008060808587031215611eeb57611eea612b1f565b5b6000611ef987828801611d4c565b9450506020611f0a87828801611d4c565b9350506040611f1b87828801611dfc565b925050606085013567ffffffffffffffff811115611f3c57611f3b612b1a565b5b611f4887828801611da0565b91505092959194509250565b60008060408385031215611f6b57611f6a612b1f565b5b6000611f7985828601611d4c565b9250506020611f8a85828601611d61565b9150509250929050565b60008060408385031215611fab57611faa612b1f565b5b6000611fb985828601611d4c565b9250506020611fca85828601611dfc565b9150509250929050565b600060208284031215611fea57611fe9612b1f565b5b6000611ff884828501611d76565b91505092915050565b60006020828403121561201757612016612b1f565b5b600061202584828501611d8b565b91505092915050565b60006020828403121561204457612043612b1f565b5b600082013567ffffffffffffffff81111561206257612061612b1a565b5b61206e84828501611dce565b91505092915050565b60006020828403121561208d5761208c612b1f565b5b600061209b84828501611dfc565b91505092915050565b6120ad81612892565b82525050565b6120bc816128a4565b82525050565b60006120cd82612794565b6120d781856127aa565b93506120e7818560208601612915565b6120f081612b24565b840191505092915050565b60006121068261279f565b61211081856127bb565b9350612120818560208601612915565b61212981612b24565b840191505092915050565b600061213f8261279f565b61214981856127cc565b9350612159818560208601612915565b80840191505092915050565b60006121726032836127bb565b915061217d82612b35565b604082019050919050565b60006121956026836127bb565b91506121a082612b84565b604082019050919050565b60006121b86025836127bb565b91506121c382612bd3565b604082019050919050565b60006121db601c836127bb565b91506121e682612c22565b602082019050919050565b60006121fe6024836127bb565b915061220982612c4b565b604082019050919050565b60006122216019836127bb565b915061222c82612c9a565b602082019050919050565b6000612244602c836127bb565b915061224f82612cc3565b604082019050919050565b60006122676038836127bb565b915061227282612d12565b604082019050919050565b600061228a602a836127bb565b915061229582612d61565b604082019050919050565b60006122ad6029836127bb565b91506122b882612db0565b604082019050919050565b60006122d0602e836127bb565b91506122db82612dff565b604082019050919050565b60006122f36020836127bb565b91506122fe82612e4e565b602082019050919050565b60006123166031836127bb565b915061232182612e77565b604082019050919050565b6000612339602c836127bb565b915061234482612ec6565b604082019050919050565b600061235c6020836127bb565b915061236782612f15565b602082019050919050565b600061237f602f836127bb565b915061238a82612f3e565b604082019050919050565b60006123a26021836127bb565b91506123ad82612f8d565b604082019050919050565b60006123c56031836127bb565b91506123d082612fdc565b604082019050919050565b6123e4816128fc565b82525050565b60006123f68285612134565b91506124028284612134565b91508190509392505050565b600060208201905061242360008301846120a4565b92915050565b600060808201905061243e60008301876120a4565b61244b60208301866120a4565b61245860408301856123db565b818103606083015261246a81846120c2565b905095945050505050565b600060208201905061248a60008301846120b3565b92915050565b600060208201905081810360008301526124aa81846120fb565b905092915050565b600060208201905081810360008301526124cb81612165565b9050919050565b600060208201905081810360008301526124eb81612188565b9050919050565b6000602082019050818103600083015261250b816121ab565b9050919050565b6000602082019050818103600083015261252b816121ce565b9050919050565b6000602082019050818103600083015261254b816121f1565b9050919050565b6000602082019050818103600083015261256b81612214565b9050919050565b6000602082019050818103600083015261258b81612237565b9050919050565b600060208201905081810360008301526125ab8161225a565b9050919050565b600060208201905081810360008301526125cb8161227d565b9050919050565b600060208201905081810360008301526125eb816122a0565b9050919050565b6000602082019050818103600083015261260b816122c3565b9050919050565b6000602082019050818103600083015261262b816122e6565b9050919050565b6000602082019050818103600083015261264b81612309565b9050919050565b6000602082019050818103600083015261266b8161232c565b9050919050565b6000602082019050818103600083015261268b8161234f565b9050919050565b600060208201905081810360008301526126ab81612372565b9050919050565b600060208201905081810360008301526126cb81612395565b9050919050565b600060208201905081810360008301526126eb816123b8565b9050919050565b600060208201905061270760008301846123db565b92915050565b6000612717612728565b9050612723828261297a565b919050565b6000604051905090565b600067ffffffffffffffff82111561274d5761274c612ae1565b5b61275682612b24565b9050602081019050919050565b600067ffffffffffffffff82111561277e5761277d612ae1565b5b61278782612b24565b9050602081019050919050565b600081519050919050565b600081519050919050565b600082825260208201905092915050565b600082825260208201905092915050565b600081905092915050565b60006127e2826128fc565b91506127ed836128fc565b9250827fffffffffffffffffffffffffffffffffffffffffffffffffffffffffffffffff0382111561282257612821612a25565b5b828201905092915050565b6000612838826128fc565b9150612843836128fc565b92508261285357612852612a54565b5b828204905092915050565b6000612869826128fc565b9150612874836128fc565b92508282101561288757612886612a25565b5b828203905092915050565b600061289d826128dc565b9050919050565b60008115159050919050565b60007fffffffff0000000000000000000000000000000000000000000000000000000082169050919050565b600073ffffffffffffffffffffffffffffffffffffffff82169050919050565b6000819050919050565b82818337600083830152505050565b60005b83811015612933578082015181840152602081019050612918565b83811115612942576000848401525b50505050565b6000600282049050600182168061296057607f821691505b6020821081141561297457612973612a83565b5b50919050565b61298382612b24565b810181811067ffffffffffffffff821117156129a2576129a1612ae1565b5b80604052505050565b60006129b6826128fc565b91507fffffffffffffffffffffffffffffffffffffffffffffffffffffffffffffffff8214156129e9576129e8612a25565b5b600182019050919050565b60006129ff826128fc565b9150612a0a836128fc565b925082612a1a57612a19612a54565b5b828206905092915050565b7f4e487b7100000000000000000000000000000000000000000000000000000000600052601160045260246000fd5b7f4e487b7100000000000000000000000000000000000000000000000000000000600052601260045260246000fd5b7f4e487b7100000000000000000000000000000000000000000000000000000000600052602260045260246000fd5b7f4e487b7100000000000000000000000000000000000000000000000000000000600052603260045260246000fd5b7f4e487b7100000000000000000000000000000000000000000000000000000000600052604160045260246000fd5b600080fd5b600080fd5b600080fd5b600080fd5b6000601f19601f8301169050919050565b7f4552433732313a207472616e7366657220746f206e6f6e20455243373231526560008201527f63656976657220696d706c656d656e7465720000000000000000000000000000602082015250565b7f4f776e61626c653a206e6577206f776e657220697320746865207a65726f206160008201527f6464726573730000000000000000000000000000000000000000000000000000602082015250565b7f4552433732313a207472616e736665722066726f6d20696e636f72726563742060008201527f6f776e6572000000000000000000000000000000000000000000000000000000602082015250565b7f4552433732313a20746f6b656e20616c7265616479206d696e74656400000000600082015250565b7f4552433732313a207472616e7366657220746f20746865207a65726f2061646460008201527f7265737300000000000000000000000000000000000000000000000000000000602082015250565b7f4552433732313a20617070726f766520746f2063616c6c657200000000000000600082015250565b7f4552433732313a206f70657261746f7220717565727920666f72206e6f6e657860008201527f697374656e7420746f6b656e0000000000000000000000000000000000000000602082015250565b7f4552433732313a20617070726f76652063616c6c6572206973206e6f74206f7760008201527f6e6572206e6f7220617070726f76656420666f7220616c6c0000000000000000602082015250565b7f4552433732313a2062616c616e636520717565727920666f7220746865207a6560008201527f726f206164647265737300000000000000000000000000000000000000000000602082015250565b7f4552433732313a206f776e657220717565727920666f72206e6f6e657869737460008201527f656e7420746f6b656e0000000000000000000000000000000000000000000000602082015250565b7f45524337323155524953746f726167653a2055524920736574206f66206e6f6e60008201527f6578697374656e7420746f6b656e000000000000000000000000000000000000602082015250565b7f4552433732313a206d696e7420746f20746865207a65726f2061646472657373600082015250565b7f45524337323155524953746f726167653a2055524920717565727920666f722060008201527f6e6f6e6578697374656e7420746f6b656e000000000000000000000000000000602082015250565b7f4552433732313a20617070726f76656420717565727920666f72206e6f6e657860008201527f697374656e7420746f6b656e0000000000000000000000000000000000000000602082015250565b7f4f776e61626c653a2063616c6c6572206973206e6f7420746865206f776e6572600082015250565b7f4552433732314d657461646174613a2055524920717565727920666f72206e6f60008201527f6e6578697374656e7420746f6b656e0000000000000000000000000000000000602082015250565b7f4552433732313a20617070726f76616c20746f2063757272656e74206f776e6560008201527f7200000000000000000000000000000000000000000000000000000000000000602082015250565b7f4552433732313a207472616e736665722063616c6c6572206973206e6f74206f60008201527f776e6572206e6f7220617070726f766564000000000000000000000000000000602082015250565b61303481612892565b811461303f57600080fd5b50565b61304b816128a4565b811461305657600080fd5b50565b613062816128b0565b811461306d57600080fd5b50565b613079816128fc565b811461308457600080fd5b5056fea2646970667358221220d01c889a6c1dc7c31e0b41915e4eacba1addd4d5798cf2c48a60b3456bb2cd9b64736f6c63430008070033",
  "immutableReferences": {},
  "source": "pragma solidity ^0.8.7;\n\nimport \"@openzeppelin/contracts/token/ERC721/ERC721.sol\";\nimport \"@openzeppelin/contracts/utils/Counters.sol\";\nimport \"@openzeppelin/contracts/access/Ownable.sol\";\nimport \"@openzeppelin/contracts/token/ERC721/extensions/ERC721URIStorage.sol\";\n\ncontract InJikToken is ERC721URIStorage, Ownable {\n    using Counters for Counters.Counter;\n    uint INITIAL_SUPPLY = 2000000;\n    Counters.Counter private _tokenIds;\n\n    constructor() public ERC721(\"InJik\", \"INJ\") {\n        _mint(msg.sender, INITIAL_SUPPLY * 10 ** uint(18));\n    }\n\n    function mint(address to, uint amount) public onlyOwner{\n        _mint(to, amount);\n    }\n\n    function mintNFT(string memory tokenURI) public onlyOwner returns (uint256)\n    {\n        _tokenIds.increment();\n        \n        uint256 newItemId = _tokenIds.current();\n        _mint(msg.sender, newItemId);\n        _setTokenURI(newItemId, tokenURI);\n\n        return newItemId;\n    }\n}\n",
  "sourcePath": "/Users/islab/EthereumDApp/InJik-JobHuntingPosition-SmartContract/contracts/InJikToken.sol",
  "compiler": {
    "name": "solc",
    "version": "0.8.7+commit.e28d00a7.Emscripten.clang"
  },
  "schemaVersion": "3.4.7",
  "updatedAt": "2022-06-01T11:42:14.969Z",
  "networkType": "ethereum",
  "devdoc": {
    "kind": "dev",
    "methods": {
      "approve(address,uint256)": {
        "details": "See {IERC721-approve}."
      },
      "balanceOf(address)": {
        "details": "See {IERC721-balanceOf}."
      },
      "getApproved(uint256)": {
        "details": "See {IERC721-getApproved}."
      },
      "isApprovedForAll(address,address)": {
        "details": "See {IERC721-isApprovedForAll}."
      },
      "name()": {
        "details": "See {IERC721Metadata-name}."
      },
      "owner()": {
        "details": "Returns the address of the current owner."
      },
      "ownerOf(uint256)": {
        "details": "See {IERC721-ownerOf}."
      },
      "renounceOwnership()": {
        "details": "Leaves the contract without owner. It will not be possible to call `onlyOwner` functions anymore. Can only be called by the current owner. NOTE: Renouncing ownership will leave the contract without an owner, thereby removing any functionality that is only available to the owner."
      },
      "safeTransferFrom(address,address,uint256)": {
        "details": "See {IERC721-safeTransferFrom}."
      },
      "safeTransferFrom(address,address,uint256,bytes)": {
        "details": "See {IERC721-safeTransferFrom}."
      },
      "setApprovalForAll(address,bool)": {
        "details": "See {IERC721-setApprovalForAll}."
      },
      "supportsInterface(bytes4)": {
        "details": "See {IERC165-supportsInterface}."
      },
      "symbol()": {
        "details": "See {IERC721Metadata-symbol}."
      },
      "tokenURI(uint256)": {
        "details": "See {IERC721Metadata-tokenURI}."
      },
      "transferFrom(address,address,uint256)": {
        "details": "See {IERC721-transferFrom}."
      },
      "transferOwnership(address)": {
        "details": "Transfers ownership of the contract to a new account (`newOwner`). Can only be called by the current owner."
      }
    },
    "version": 1
  },
  "userdoc": {
    "kind": "user",
    "methods": {},
    "version": 1
  }
}