{
  "contractName": "Election",
  "abi": [
    {
      "inputs": [],
      "payable": false,
      "stateMutability": "nonpayable",
      "type": "constructor"
    },
    {
      "constant": true,
      "inputs": [
        {
          "internalType": "uint256",
          "name": "",
          "type": "uint256"
        }
      ],
      "name": "candidates",
      "outputs": [
        {
          "internalType": "uint256",
          "name": "id",
          "type": "uint256"
        },
        {
          "internalType": "string",
          "name": "name",
          "type": "string"
        },
        {
          "internalType": "uint256",
          "name": "voteCount",
          "type": "uint256"
        }
      ],
      "payable": false,
      "stateMutability": "view",
      "type": "function"
    },
    {
      "constant": true,
      "inputs": [],
      "name": "candidatesCount",
      "outputs": [
        {
          "internalType": "uint256",
          "name": "",
          "type": "uint256"
        }
      ],
      "payable": false,
      "stateMutability": "view",
      "type": "function"
    }
  ],
  "bytecode": "0x608060405234801561001057600080fd5b506100556040518060400160405280600981526020017febb0b0ec84b1ebafbc000000000000000000000000000000000000000000000081525061009e60201b60201c565b6100996040518060400160405280600981526020017feab980ed95b4eb9e8c000000000000000000000000000000000000000000000081525061009e60201b60201c565b6101be565b6001600081548092919060010191905055506040518060600160405280600154815260200182815260200160008152506000806001548152602001908152602001600020600082015181600001556020820151816001019080519060200190610108929190610119565b506040820151816002015590505050565b828054600181600116156101000203166002900490600052602060002090601f016020900481019282601f1061015a57805160ff1916838001178555610188565b82800160010185558215610188579182015b8281111561018757825182559160200191906001019061016c565b5b5090506101959190610199565b5090565b6101bb91905b808211156101b757600081600090555060010161019f565b5090565b90565b61020b806101cd6000396000f3fe608060405234801561001057600080fd5b50600436106100365760003560e01c80632d35a8a21461003b5780633477ee2e14610059575b600080fd5b61004361010e565b6040518082815260200191505060405180910390f35b6100856004803603602081101561006f57600080fd5b8101908080359060200190929190505050610114565b6040518084815260200180602001838152602001828103825284818151815260200191508051906020019080838360005b838110156100d15780820151818401526020810190506100b6565b50505050905090810190601f1680156100fe5780820380516001836020036101000a031916815260200191505b5094505050505060405180910390f35b60015481565b6000602052806000526040600020600091509050806000015490806001018054600181600116156101000203166002900480601f0160208091040260200160405190810160405280929190818152602001828054600181600116156101000203166002900480156101c65780601f1061019b576101008083540402835291602001916101c6565b820191906000526020600020905b8154815290600101906020018083116101a957829003601f168201915b505050505090806002015490508356fea265627a7a7231582014cf8dbf2f01edaa8b44d351ee8d28cb0f0a8df62e70829d281cfecb35c433c664736f6c63430005100032",
  "source": "pragma solidity >=0.4.22 <0.8.0;\r\n\r\ncontract Election {\r\n    // Model a Candidate\r\n    struct Candidate {\r\n        uint id;\r\n        string name;\r\n        uint voteCount;\r\n    }\r\n  // Read/write Candidates\r\n    // mapping의 key값은 unsigned integer 데이터 타입\r\n    // value값은 우리가 조금 전에 정의한 Candidate 구조체\r\n    // 이로써 우리는 후보자들의 id(uint)로 후보자를 조회할 수 있게 되었다\r\n    // 우리가 만든 후보자 mapping은 contract 하위에 위치한 state variable(Java에서의 전역변수와 유사)(반대되는 개념: local variable)이기 때문에\r\n    // 새로운 key-value로 언제든지 블록체인에 데이터를 기록할 수 있다\r\n    // 또한 public으로 선언했기 때문에 getter function을 자동으로 갖게되어 외부에서 함수 호출만으로 조회가 가능하다\r\n\r\n    // Read/write candidates\r\n    mapping(uint => Candidate) public candidates;\r\n    // 후보자 Counter 선언\r\n    // Store Candidates Count\r\n    // 선거에 참여하는 후보자들의 수 변수 선언\r\n    // Store Candidates Count\r\n    uint public candidatesCount;\r\n\r\n    constructor() public {\r\n        addCandidate(\"배성민\");\r\n        addCandidate(\"김해람\");\r\n    }\r\n\r\n    function addCandidate (string memory _name) private {\r\n        candidatesCount ++;\r\n        candidates[candidatesCount] = Candidate(candidatesCount, _name, 0);\r\n    }\r\n}",
  "sourcePath": "C:\\Users\\ghdtj\\OneDrive\\바탕 화면\\blockchain\\vote_Dapp\\contracts\\Election.sol",
  "compiler": {
    "name": "solc",
    "version": "0.5.16+commit.9c3226ce.Emscripten.clang"
  },
  "schemaVersion": "3.4.4",
  "updatedAt": "2022-03-24T08:25:39.094Z",
  "devdoc": {
    "methods": {}
  },
  "userdoc": {
    "methods": {}
  }
}