{
  "contractName": "Election",
  "abi": [
    {
      "inputs": [],
      "payable": false,
      "stateMutability": "nonpayable",
      "type": "constructor"
    },
    {
      "constant": true,
      "inputs": [],
      "name": "candidate",
      "outputs": [
        {
          "internalType": "string",
          "name": "",
          "type": "string"
        }
      ],
      "payable": false,
      "stateMutability": "view",
      "type": "function"
    }
  ],
  "bytecode": "0x608060405234801561001057600080fd5b506040518060400160405280600b81526020017f43616e64696461746520310000000000000000000000000000000000000000008152506000908051906020019061005c929190610062565b50610107565b828054600181600116156101000203166002900490600052602060002090601f016020900481019282601f106100a357805160ff19168380011785556100d1565b828001600101855582156100d1579182015b828111156100d05782518255916020019190600101906100b5565b5b5090506100de91906100e2565b5090565b61010491905b808211156101005760008160009055506001016100e8565b5090565b90565b610186806101166000396000f3fe608060405234801561001057600080fd5b506004361061002b5760003560e01c80636c8381f814610030575b600080fd5b6100386100b3565b6040518080602001828103825283818151815260200191508051906020019080838360005b8381101561007857808201518184015260208101905061005d565b50505050905090810190601f1680156100a55780820380516001836020036101000a031916815260200191505b509250505060405180910390f35b60008054600181600116156101000203166002900480601f0160208091040260200160405190810160405280929190818152602001828054600181600116156101000203166002900480156101495780601f1061011e57610100808354040283529160200191610149565b820191906000526020600020905b81548152906001019060200180831161012c57829003601f168201915b50505050508156fea265627a7a72315820fdfba6471fe3f81f887039da9ee54799dbe6fcc7e5c41b3c80254a2e57901f5464736f6c63430005100032",
  "source": "\r\n//스마트 계약은 솔리디티 version을 선언하는 pragma로 시작\r\npragma solidity >=0.4.22 <0.8.0;\r\ncontract Election {\r\n    //Read/ write candiate\r\n    //candidate 이름으로 저장할 string 변수 선언\r\n    // public으로 선언하면 solidity 가 \r\n    //\"공짜\"로 해당 변수 내용을 조회할 수 있는 getter 함수를 제공\r\n    string public candidate;\r\n\r\n    //Constructor\r\n    //constructor 함수는 스마트 계약이 블록체인이 배포될때 \r\n    //최초에 한번 실행\r\n    //우리가 미리 세팅하고자 하는 변수는 migration을 통해 블록체인에 저장\r\n\r\n    constructor() public {\r\n        candidate = \"Candidate 1\";\r\n    }\r\n\r\n\r\n}",
  "sourcePath": "C:\\Users\\ghdtj\\OneDrive\\바탕 화면\\blockchain\\vote_Dapp\\contracts\\Election.sol",
  "compiler": {
    "name": "solc",
    "version": "0.5.16+commit.9c3226ce.Emscripten.clang"
  },
  "schemaVersion": "3.4.4",
  "updatedAt": "2022-03-23T11:56:07.704Z",
  "devdoc": {
    "methods": {}
  },
  "userdoc": {
    "methods": {}
  }
}